{
  "_format": "hh-sol-artifact-1",
  "contractName": "Marketplace",
  "sourceName": "contracts/Marketplace.sol",
  "abi": [
    {
      "inputs": [
        {
          "internalType": "uint256",
          "name": "_feePercent",
          "type": "uint256"
        }
      ],
      "stateMutability": "nonpayable",
      "type": "constructor"
    },
    {
      "anonymous": false,
      "inputs": [
        {
          "indexed": false,
          "internalType": "uint256",
          "name": "itemId",
          "type": "uint256"
        },
        {
          "indexed": true,
          "internalType": "address",
          "name": "nft",
          "type": "address"
        },
        {
          "indexed": false,
          "internalType": "uint256",
          "name": "tokenId",
          "type": "uint256"
        },
        {
          "indexed": false,
          "internalType": "uint256",
          "name": "price",
          "type": "uint256"
        },
        {
          "indexed": true,
          "internalType": "address",
          "name": "seller",
          "type": "address"
        },
        {
          "indexed": true,
          "internalType": "address",
          "name": "buyer",
          "type": "address"
        }
      ],
      "name": "Bought",
      "type": "event"
    },
    {
      "anonymous": false,
      "inputs": [
        {
          "indexed": false,
          "internalType": "uint256",
          "name": "itemId",
          "type": "uint256"
        },
        {
          "indexed": true,
          "internalType": "address",
          "name": "nft",
          "type": "address"
        },
        {
          "indexed": false,
          "internalType": "uint256",
          "name": "tokenId",
          "type": "uint256"
        },
        {
          "indexed": false,
          "internalType": "uint256",
          "name": "price",
          "type": "uint256"
        },
        {
          "indexed": true,
          "internalType": "address",
          "name": "seller",
          "type": "address"
        }
      ],
      "name": "Offered",
      "type": "event"
    },
    {
      "stateMutability": "payable",
      "type": "fallback"
    },
    {
      "inputs": [],
      "name": "feeAccount",
      "outputs": [
        {
          "internalType": "address payable",
          "name": "",
          "type": "address"
        }
      ],
      "stateMutability": "view",
      "type": "function"
    },
    {
      "inputs": [],
      "name": "feePercent",
      "outputs": [
        {
          "internalType": "uint256",
          "name": "",
          "type": "uint256"
        }
      ],
      "stateMutability": "view",
      "type": "function"
    },
    {
      "inputs": [
        {
          "internalType": "uint256",
          "name": "_itemId",
          "type": "uint256"
        }
      ],
      "name": "getTotalPrice",
      "outputs": [
        {
          "internalType": "uint256",
          "name": "",
          "type": "uint256"
        }
      ],
      "stateMutability": "view",
      "type": "function"
    },
    {
      "inputs": [],
      "name": "itemCount",
      "outputs": [
        {
          "internalType": "uint256",
          "name": "",
          "type": "uint256"
        }
      ],
      "stateMutability": "view",
      "type": "function"
    },
    {
      "inputs": [
        {
          "internalType": "uint256",
          "name": "",
          "type": "uint256"
        }
      ],
      "name": "items",
      "outputs": [
        {
          "internalType": "uint256",
          "name": "itemId",
          "type": "uint256"
        },
        {
          "internalType": "contract IERC721",
          "name": "nft",
          "type": "address"
        },
        {
          "internalType": "uint256",
          "name": "tokenId",
          "type": "uint256"
        },
        {
          "internalType": "uint256",
          "name": "price",
          "type": "uint256"
        },
        {
          "internalType": "address payable",
          "name": "seller",
          "type": "address"
        },
        {
          "internalType": "bool",
          "name": "sold",
          "type": "bool"
        }
      ],
      "stateMutability": "view",
      "type": "function"
    },
    {
      "inputs": [
        {
          "internalType": "contract IERC721",
          "name": "_nft",
          "type": "address"
        },
        {
          "internalType": "uint256",
          "name": "_tokenId",
          "type": "uint256"
        },
        {
          "internalType": "uint256",
          "name": "_price",
          "type": "uint256"
        }
      ],
      "name": "makeItem",
      "outputs": [],
      "stateMutability": "nonpayable",
      "type": "function"
    },
    {
      "inputs": [
        {
          "internalType": "uint256",
          "name": "_itemId",
          "type": "uint256"
        }
      ],
      "name": "purchaseItem",
      "outputs": [],
      "stateMutability": "payable",
      "type": "function"
    },
    {
      "stateMutability": "payable",
      "type": "receive"
    }
  ],
  "bytecode": "0x60c06040523480156200001157600080fd5b50604051620012c6380380620012c68339818101604052810190620000379190620000c2565b60016000819055503373ffffffffffffffffffffffffffffffffffffffff1660808173ffffffffffffffffffffffffffffffffffffffff16815250508060a0818152505050620000f4565b600080fd5b6000819050919050565b6200009c8162000087565b8114620000a857600080fd5b50565b600081519050620000bc8162000091565b92915050565b600060208284031215620000db57620000da62000082565b5b6000620000eb84828501620000ab565b91505092915050565b60805160a05161119e6200012860003960008181610299015261034a01526000818161026f0152610570015261119e6000f3fe6080604052600436106100745760003560e01c8063bfb231d21161004e578063bfb231d214610110578063ca7dd37514610152578063d38ea5bf1461018f578063fa00afc7146101ab57610084565b806365e17c9d1461008f5780636bfb0d01146100ba5780637fd6f15c146100e557610084565b3661008457610082346101d4565b005b61008d346101d4565b005b34801561009b57600080fd5b506100a461026d565b6040516100b19190610ab1565b60405180910390f35b3480156100c657600080fd5b506100cf610291565b6040516100dc9190610ae5565b60405180910390f35b3480156100f157600080fd5b506100fa610297565b6040516101079190610ae5565b60405180910390f35b34801561011c57600080fd5b5061013760048036038101906101329190610b31565b6102bb565b60405161014996959493929190610bd8565b60405180910390f35b34801561015e57600080fd5b5061017960048036038101906101749190610b31565b610344565b6040516101869190610ae5565b60405180910390f35b6101a960048036038101906101a49190610b31565b6103a7565b005b3480156101b757600080fd5b506101d260048036038101906101cd9190610c89565b610775565b005b61026a816040516024016101e89190610ae5565b6040516020818303038152906040527ff5b1bba9000000000000000000000000000000000000000000000000000000007bffffffffffffffffffffffffffffffffffffffffffffffffffffffff19166020820180517bffffffffffffffffffffffffffffffffffffffffffffffffffffffff8381831617835250505050610a47565b50565b7f000000000000000000000000000000000000000000000000000000000000000081565b60015481565b7f000000000000000000000000000000000000000000000000000000000000000081565b60026020528060005260406000206000915090508060000154908060010160009054906101000a900473ffffffffffffffffffffffffffffffffffffffff16908060020154908060030154908060040160009054906101000a900473ffffffffffffffffffffffffffffffffffffffff16908060040160149054906101000a900460ff16905086565b600060647f000000000000000000000000000000000000000000000000000000000000000060646103759190610d0b565b60026000858152602001908152602001600020600301546103969190610d61565b6103a09190610dea565b9050919050565b600260005414156103ed576040517f08c379a00000000000000000000000000000000000000000000000000000000081526004016103e490610e78565b60405180910390fd5b6002600081905550600061040082610344565b9050600060026000848152602001908152602001600020905060008311801561042b57506001548311155b61046a576040517f08c379a000000000000000000000000000000000000000000000000000000000815260040161046190610ee4565b60405180910390fd5b813410156104ad576040517f08c379a00000000000000000000000000000000000000000000000000000000081526004016104a490610f76565b60405180910390fd5b8060040160149054906101000a900460ff16156104ff576040517f08c379a00000000000000000000000000000000000000000000000000000000081526004016104f690610fe2565b60405180910390fd5b8060040160009054906101000a900473ffffffffffffffffffffffffffffffffffffffff1673ffffffffffffffffffffffffffffffffffffffff166108fc82600301549081150290604051600060405180830381858888f1935050505015801561056d573d6000803e3d6000fd5b507f000000000000000000000000000000000000000000000000000000000000000073ffffffffffffffffffffffffffffffffffffffff166108fc8260030154846105b89190611002565b9081150290604051600060405180830381858888f193505050501580156105e3573d6000803e3d6000fd5b5060018160040160146101000a81548160ff0219169083151502179055508060010160009054906101000a900473ffffffffffffffffffffffffffffffffffffffff1673ffffffffffffffffffffffffffffffffffffffff166323b872dd303384600201546040518463ffffffff1660e01b815260040161066693929190611045565b600060405180830381600087803b15801561068057600080fd5b505af1158015610694573d6000803e3d6000fd5b505050503373ffffffffffffffffffffffffffffffffffffffff168160040160009054906101000a900473ffffffffffffffffffffffffffffffffffffffff1673ffffffffffffffffffffffffffffffffffffffff168260010160009054906101000a900473ffffffffffffffffffffffffffffffffffffffff1673ffffffffffffffffffffffffffffffffffffffff167f8b4c9c8a607d67b321582dd8461041b1dc2ceeca70c8b7f37f8e02095cf2e76d86856002015486600301546040516107609392919061107c565b60405180910390a45050600160008190555050565b600260005414156107bb576040517f08c379a00000000000000000000000000000000000000000000000000000000081526004016107b290610e78565b60405180910390fd5b600260008190555060008111610806576040517f08c379a00000000000000000000000000000000000000000000000000000000081526004016107fd906110ff565b60405180910390fd5b600160008154809291906108199061111f565b91905055508273ffffffffffffffffffffffffffffffffffffffff166323b872dd3330856040518463ffffffff1660e01b815260040161085b93929190611045565b600060405180830381600087803b15801561087557600080fd5b505af1158015610889573d6000803e3d6000fd5b505050506040518060c0016040528060015481526020018473ffffffffffffffffffffffffffffffffffffffff1681526020018381526020018281526020013373ffffffffffffffffffffffffffffffffffffffff168152602001600015158152506002600060015481526020019081526020016000206000820151816000015560208201518160010160006101000a81548173ffffffffffffffffffffffffffffffffffffffff021916908373ffffffffffffffffffffffffffffffffffffffff160217905550604082015181600201556060820151816003015560808201518160040160006101000a81548173ffffffffffffffffffffffffffffffffffffffff021916908373ffffffffffffffffffffffffffffffffffffffff16021790555060a08201518160040160146101000a81548160ff0219169083151502179055509050503373ffffffffffffffffffffffffffffffffffffffff168373ffffffffffffffffffffffffffffffffffffffff167f655a0cf9c8db81512be9a76dc1c5ae5380b8816ce6ad659cd61b715e2999d59a6001548585604051610a329392919061107c565b60405180910390a36001600081905550505050565b60008151905060006a636f6e736f6c652e6c6f679050602083016000808483855afa5050505050565b600073ffffffffffffffffffffffffffffffffffffffff82169050919050565b6000610a9b82610a70565b9050919050565b610aab81610a90565b82525050565b6000602082019050610ac66000830184610aa2565b92915050565b6000819050919050565b610adf81610acc565b82525050565b6000602082019050610afa6000830184610ad6565b92915050565b600080fd5b610b0e81610acc565b8114610b1957600080fd5b50565b600081359050610b2b81610b05565b92915050565b600060208284031215610b4757610b46610b00565b5b6000610b5584828501610b1c565b91505092915050565b6000819050919050565b6000610b83610b7e610b7984610a70565b610b5e565b610a70565b9050919050565b6000610b9582610b68565b9050919050565b6000610ba782610b8a565b9050919050565b610bb781610b9c565b82525050565b60008115159050919050565b610bd281610bbd565b82525050565b600060c082019050610bed6000830189610ad6565b610bfa6020830188610bae565b610c076040830187610ad6565b610c146060830186610ad6565b610c216080830185610aa2565b610c2e60a0830184610bc9565b979650505050505050565b6000610c4482610a70565b9050919050565b6000610c5682610c39565b9050919050565b610c6681610c4b565b8114610c7157600080fd5b50565b600081359050610c8381610c5d565b92915050565b600080600060608486031215610ca257610ca1610b00565b5b6000610cb086828701610c74565b9350506020610cc186828701610b1c565b9250506040610cd286828701610b1c565b9150509250925092565b7f4e487b7100000000000000000000000000000000000000000000000000000000600052601160045260246000fd5b6000610d1682610acc565b9150610d2183610acc565b9250827fffffffffffffffffffffffffffffffffffffffffffffffffffffffffffffffff03821115610d5657610d55610cdc565b5b828201905092915050565b6000610d6c82610acc565b9150610d7783610acc565b9250817fffffffffffffffffffffffffffffffffffffffffffffffffffffffffffffffff0483118215151615610db057610daf610cdc565b5b828202905092915050565b7f4e487b7100000000000000000000000000000000000000000000000000000000600052601260045260246000fd5b6000610df582610acc565b9150610e0083610acc565b925082610e1057610e0f610dbb565b5b828204905092915050565b600082825260208201905092915050565b7f5265656e7472616e637947756172643a207265656e7472616e742063616c6c00600082015250565b6000610e62601f83610e1b565b9150610e6d82610e2c565b602082019050919050565b60006020820190508181036000830152610e9181610e55565b9050919050565b7f6974656d20646f65736e27742065786973740000000000000000000000000000600082015250565b6000610ece601283610e1b565b9150610ed982610e98565b602082019050919050565b60006020820190508181036000830152610efd81610ec1565b9050919050565b7f6e6f7420656e6f75676820657468657220746f20636f766572206974656d207060008201527f7269636520616e64206d61726b65742066656500000000000000000000000000602082015250565b6000610f60603383610e1b565b9150610f6b82610f04565b604082019050919050565b60006020820190508181036000830152610f8f81610f53565b9050919050565b7f6974656d20616c726561647920736f6c64000000000000000000000000000000600082015250565b6000610fcc601183610e1b565b9150610fd782610f96565b602082019050919050565b60006020820190508181036000830152610ffb81610fbf565b9050919050565b600061100d82610acc565b915061101883610acc565b92508282101561102b5761102a610cdc565b5b828203905092915050565b61103f81610c39565b82525050565b600060608201905061105a6000830186611036565b6110676020830185611036565b6110746040830184610ad6565b949350505050565b60006060820190506110916000830186610ad6565b61109e6020830185610ad6565b6110ab6040830184610ad6565b949350505050565b7f5072696365206d7573742062652067726561746572207468616e207a65726f00600082015250565b60006110e9601f83610e1b565b91506110f4826110b3565b602082019050919050565b60006020820190508181036000830152611118816110dc565b9050919050565b600061112a82610acc565b91507fffffffffffffffffffffffffffffffffffffffffffffffffffffffffffffffff82141561115d5761115c610cdc565b5b60018201905091905056fea2646970667358221220f4b966989b8ac9116622ee9b08a3dfdebc357268234e37aac4d3f11099ba475964736f6c63430008090033",
  "linkReferences": {},
  "deployedLinkReferences": {}
}